{
  "contractName": "Product",
  "abi": [
    {
      "constant": true,
      "inputs": [
        {
          "name": "",
          "type": "uint256"
        }
      ],
      "name": "items",
      "outputs": [
        {
          "name": "buyer",
          "type": "address"
        },
        {
          "name": "seller",
          "type": "address"
        },
        {
          "name": "id",
          "type": "uint256"
        },
        {
          "name": "itemName",
          "type": "string"
        },
        {
          "name": "itemDescription",
          "type": "string"
        },
        {
          "name": "itemPrice",
          "type": "uint256"
        },
        {
          "name": "sold",
          "type": "bool"
        },
        {
          "name": "sent",
          "type": "bool"
        },
        {
          "name": "received",
          "type": "bool"
        }
      ],
      "payable": false,
      "stateMutability": "view",
      "type": "function",
      "signature": "0xbfb231d2"
    },
    {
      "inputs": [],
      "payable": false,
      "stateMutability": "nonpayable",
      "type": "constructor",
      "signature": "constructor"
    },
    {
      "anonymous": false,
      "inputs": [
        {
          "indexed": false,
          "name": "price",
          "type": "uint256"
        },
        {
          "indexed": false,
          "name": "name",
          "type": "string"
        },
        {
          "indexed": false,
          "name": "seller",
          "type": "address"
        }
      ],
      "name": "doStuff",
      "type": "event",
      "signature": "0x9d74218d471bd18ed37aaf91b960836a8df35f4fe940ddb6a221482aa5fe3ad4"
    },
    {
      "constant": false,
      "inputs": [
        {
          "name": "name",
          "type": "string"
        },
        {
          "name": "description",
          "type": "string"
        },
        {
          "name": "price",
          "type": "uint256"
        }
      ],
      "name": "newItem",
      "outputs": [
        {
          "name": "",
          "type": "uint256"
        }
      ],
      "payable": false,
      "stateMutability": "nonpayable",
      "type": "function",
      "signature": "0x85b565b5"
    },
    {
      "constant": true,
      "inputs": [
        {
          "name": "id",
          "type": "uint256"
        }
      ],
      "name": "getItem",
      "outputs": [
        {
          "name": "",
          "type": "uint256"
        },
        {
          "name": "",
          "type": "string"
        },
        {
          "name": "",
          "type": "string"
        },
        {
          "name": "",
          "type": "uint256"
        },
        {
          "name": "",
          "type": "bool"
        },
        {
          "name": "",
          "type": "bool"
        },
        {
          "name": "",
          "type": "bool"
        }
      ],
      "payable": false,
      "stateMutability": "view",
      "type": "function",
      "signature": "0x3129e773"
    },
    {
      "constant": false,
      "inputs": [
        {
          "name": "id",
          "type": "uint256"
        }
      ],
      "name": "buyItem",
      "outputs": [
        {
          "name": "",
          "type": "bool"
        }
      ],
      "payable": true,
      "stateMutability": "payable",
      "type": "function",
      "signature": "0xe7fb74c7"
    },
    {
      "constant": false,
      "inputs": [
        {
          "name": "id",
          "type": "uint256"
        }
      ],
      "name": "receivedItem",
      "outputs": [],
      "payable": false,
      "stateMutability": "nonpayable",
      "type": "function",
      "signature": "0x1be0c6bc"
    },
    {
      "constant": false,
      "inputs": [
        {
          "name": "id",
          "type": "uint256"
        }
      ],
      "name": "sentItem",
      "outputs": [],
      "payable": false,
      "stateMutability": "nonpayable",
      "type": "function",
      "signature": "0x8ebab502"
    },
    {
      "constant": false,
      "inputs": [
        {
          "name": "id",
          "type": "uint256"
        }
      ],
      "name": "claimFunds",
      "outputs": [],
      "payable": false,
      "stateMutability": "nonpayable",
      "type": "function",
      "signature": "0x1b55e338"
    },
    {
      "constant": false,
      "inputs": [],
      "name": "kill",
      "outputs": [],
      "payable": false,
      "stateMutability": "nonpayable",
      "type": "function",
      "signature": "0x41c0e1b5"
    },
    {
      "constant": false,
      "inputs": [
        {
          "name": "status",
          "type": "bool"
        }
      ],
      "name": "switchStatus",
      "outputs": [],
      "payable": false,
      "stateMutability": "nonpayable",
      "type": "function",
      "signature": "0x3b23a5ca"
    }
  ],
  "bytecode": "0x608060405234801561001057600080fd5b50336000806101000a81548173ffffffffffffffffffffffffffffffffffffffff021916908373ffffffffffffffffffffffffffffffffffffffff1602179055506001600060146101000a81548160ff0219169083151502179055506114388061007b6000396000f3fe608060405260043610610099576000357c0100000000000000000000000000000000000000000000000000000000900463ffffffff1680631b55e3381461009e5780631be0c6bc146100d95780633129e773146101145780633b23a5ca1461026357806341c0e1b5146102a057806385b565b5146102b75780638ebab50214610434578063bfb231d21461046f578063e7fb74c714610624575b600080fd5b3480156100aa57600080fd5b506100d7600480360360208110156100c157600080fd5b810190808035906020019092919050505061066a565b005b3480156100e557600080fd5b50610112600480360360208110156100fc57600080fd5b81019080803590602001909291905050506107b0565b005b34801561012057600080fd5b5061014d6004803603602081101561013757600080fd5b81019080803590602001909291905050506108e5565b604051808881526020018060200180602001878152602001861515151581526020018515151515815260200184151515158152602001838103835289818151815260200191508051906020019080838360005b838110156101bb5780820151818401526020810190506101a0565b50505050905090810190601f1680156101e85780820380516001836020036101000a031916815260200191505b50838103825288818151815260200191508051906020019080838360005b83811015610221578082015181840152602081019050610206565b50505050905090810190601f16801561024e5780820380516001836020036101000a031916815260200191505b50995050505050505050505060405180910390f35b34801561026f57600080fd5b5061029e6004803603602081101561028657600080fd5b81019080803515159060200190929190505050610b4d565b005b3480156102ac57600080fd5b506102b5610bc5565b005b3480156102c357600080fd5b5061041e600480360360608110156102da57600080fd5b81019080803590602001906401000000008111156102f757600080fd5b82018360208201111561030957600080fd5b8035906020019184600183028401116401000000008311171561032b57600080fd5b91908080601f016020809104026020016040519081016040528093929190818152602001838380828437600081840152601f19601f8201169050808301925050505050505091929192908035906020019064010000000081111561038e57600080fd5b8201836020820111156103a057600080fd5b803590602001918460018302840111640100000000831117156103c257600080fd5b91908080601f016020809104026020016040519081016040528093929190818152602001838380828437600081840152601f19601f82011690508083019250505050505050919291929080359060200190929190505050610c39565b6040518082815260200191505060405180910390f35b34801561044057600080fd5b5061046d6004803603602081101561045757600080fd5b8101908080359060200190929190505050610fc5565b005b34801561047b57600080fd5b506104a86004803603602081101561049257600080fd5b8101908080359060200190929190505050611040565b604051808a73ffffffffffffffffffffffffffffffffffffffff1673ffffffffffffffffffffffffffffffffffffffff1681526020018973ffffffffffffffffffffffffffffffffffffffff1673ffffffffffffffffffffffffffffffffffffffff1681526020018881526020018060200180602001878152602001861515151581526020018515151515815260200184151515158152602001838103835289818151815260200191508051906020019080838360005b8381101561057a57808201518184015260208101905061055f565b50505050905090810190601f1680156105a75780820380516001836020036101000a031916815260200191505b50838103825288818151815260200191508051906020019080838360005b838110156105e05780820151818401526020810190506105c5565b50505050905090810190601f16801561060d5780820380516001836020036101000a031916815260200191505b509b50505050505050505050505060405180910390f35b6106506004803603602081101561063a57600080fd5b8101908080359060200190929190505050611234565b604051808215151515815260200191505060405180910390f35b60011515600060149054906101000a900460ff16151514151561068c57600080fd5b3373ffffffffffffffffffffffffffffffffffffffff166001828154811015156106b257fe5b906000526020600020906007020160010160009054906101000a900473ffffffffffffffffffffffffffffffffffffffff1673ffffffffffffffffffffffffffffffffffffffff1614151561070657600080fd5b6001151560018281548110151561071957fe5b906000526020600020906007020160060160029054906101000a900460ff16151514151561074657600080fd5b3373ffffffffffffffffffffffffffffffffffffffff166108fc60018381548110151561076f57fe5b9060005260206000209060070201600501549081150290604051600060405180830381858888f193505050501580156107ac573d6000803e3d6000fd5b5050565b600115156001828154811015156107c357fe5b906000526020600020906007020160060160009054906101000a900460ff1615151415156107f057600080fd5b6001151560018281548110151561080357fe5b906000526020600020906007020160060160019054906101000a900460ff16151514151561083057600080fd5b3373ffffffffffffffffffffffffffffffffffffffff1660018281548110151561085657fe5b906000526020600020906007020160000160009054906101000a900473ffffffffffffffffffffffffffffffffffffffff1673ffffffffffffffffffffffffffffffffffffffff161415156108aa57600080fd5b600180828154811015156108ba57fe5b906000526020600020906007020160060160026101000a81548160ff02191690831515021790555050565b60006060806000806000806001888154811015156108ff57fe5b90600052602060002090600702016002015460018981548110151561092057fe5b906000526020600020906007020160030160018a81548110151561094057fe5b906000526020600020906007020160040160018b81548110151561096057fe5b90600052602060002090600702016005015460018c81548110151561098157fe5b906000526020600020906007020160060160009054906101000a900460ff1660018d8154811015156109af57fe5b906000526020600020906007020160060160019054906101000a900460ff1660018e8154811015156109dd57fe5b906000526020600020906007020160060160029054906101000a900460ff16858054600181600116156101000203166002900480601f016020809104026020016040519081016040528092919081815260200182805460018160011615610100020316600290048015610a915780601f10610a6657610100808354040283529160200191610a91565b820191906000526020600020905b815481529060010190602001808311610a7457829003601f168201915b50505050509550848054600181600116156101000203166002900480601f016020809104026020016040519081016040528092919081815260200182805460018160011615610100020316600290048015610b2d5780601f10610b0257610100808354040283529160200191610b2d565b820191906000526020600020905b815481529060010190602001808311610b1057829003601f168201915b505050505094509650965096509650965096509650919395979092949650565b6000809054906101000a900473ffffffffffffffffffffffffffffffffffffffff1673ffffffffffffffffffffffffffffffffffffffff163373ffffffffffffffffffffffffffffffffffffffff16141515610ba857600080fd5b80600060146101000a81548160ff02191690831515021790555050565b6000809054906101000a900473ffffffffffffffffffffffffffffffffffffffff1673ffffffffffffffffffffffffffffffffffffffff163373ffffffffffffffffffffffffffffffffffffffff16141515610c2057600080fd5b3373ffffffffffffffffffffffffffffffffffffffff16ff5b600060011515600060149054906101000a900460ff161515141515610c5d57600080fd5b600082111515610cd5576040517f08c379a000000000000000000000000000000000000000000000000000000000815260040180806020018281038252601d8152602001807f5072696365206d7573742062652067726561746572207468616e20302e00000081525060200191505060405180910390fd5b60006001805490509050600161012060405190810160405280600073ffffffffffffffffffffffffffffffffffffffff1681526020013373ffffffffffffffffffffffffffffffffffffffff16815260200160018080549050018152602001878152602001868152602001858152602001600015158152602001600015158152602001600015158152509080600181540180825580915050906001820390600052602060002090600702016000909192909190915060008201518160000160006101000a81548173ffffffffffffffffffffffffffffffffffffffff021916908373ffffffffffffffffffffffffffffffffffffffff16021790555060208201518160010160006101000a81548173ffffffffffffffffffffffffffffffffffffffff021916908373ffffffffffffffffffffffffffffffffffffffff160217905550604082015181600201556060820151816003019080519060200190610e3e929190611367565b506080820151816004019080519060200190610e5b929190611367565b5060a0820151816005015560c08201518160060160006101000a81548160ff02191690831515021790555060e08201518160060160016101000a81548160ff0219169083151502179055506101008201518160060160026101000a81548160ff0219169083151502179055505050507f9d74218d471bd18ed37aaf91b960836a8df35f4fe940ddb6a221482aa5fe3ad483863360405180848152602001806020018373ffffffffffffffffffffffffffffffffffffffff1673ffffffffffffffffffffffffffffffffffffffff168152602001828103825284818151815260200191508051906020019080838360005b83811015610f66578082015181840152602081019050610f4b565b50505050905090810190601f168015610f935780820380516001836020036101000a031916815260200191505b5094505050505060405180910390a160018054905060018201141515610fb557fe5b6001805490509150509392505050565b60011515600182815481101515610fd857fe5b906000526020600020906007020160060160009054906101000a900460ff16151514151561100557600080fd5b6001808281548110151561101557fe5b906000526020600020906007020160060160016101000a81548160ff02191690831515021790555050565b60018181548110151561104f57fe5b90600052602060002090600702016000915090508060000160009054906101000a900473ffffffffffffffffffffffffffffffffffffffff16908060010160009054906101000a900473ffffffffffffffffffffffffffffffffffffffff1690806002015490806003018054600181600116156101000203166002900480601f01602080910402602001604051908101604052809291908181526020018280546001816001161561010002031660029004801561114d5780601f106111225761010080835404028352916020019161114d565b820191906000526020600020905b81548152906001019060200180831161113057829003601f168201915b505050505090806004018054600181600116156101000203166002900480601f0160208091040260200160405190810160405280929190818152602001828054600181600116156101000203166002900480156111eb5780601f106111c0576101008083540402835291602001916111eb565b820191906000526020600020905b8154815290600101906020018083116111ce57829003601f168201915b5050505050908060050154908060060160009054906101000a900460ff16908060060160019054906101000a900460ff16908060060160029054906101000a900460ff16905089565b600060011515600060149054906101000a900460ff16151514151561125857600080fd5b3460018381548110151561126857fe5b90600052602060002090600702016005015414151561128657600080fd5b6001151560018381548110151561129957fe5b906000526020600020906007020160060160009054906101000a900460ff161515141515156112c757600080fd5b336001838154811015156112d757fe5b906000526020600020906007020160000160006101000a81548173ffffffffffffffffffffffffffffffffffffffff021916908373ffffffffffffffffffffffffffffffffffffffff1602179055506001808381548110151561133657fe5b906000526020600020906007020160060160006101000a81548160ff02191690831515021790555060019050919050565b828054600181600116156101000203166002900490600052602060002090601f016020900481019282601f106113a857805160ff19168380011785556113d6565b828001600101855582156113d6579182015b828111156113d55782518255916020019190600101906113ba565b5b5090506113e391906113e7565b5090565b61140991905b808211156114055760008160009055506001016113ed565b5090565b9056fea165627a7a72305820af452e960b8079efc2d2f4f6c752682396f3f2d8bccb76d831ccbb7e008a68f20029",
  "source": "pragma solidity 0.5.0;\r\n\r\ncontract Product {\r\n\r\n    address owner;\r\n    bool online;\r\n\r\n    constructor() public{\r\n        owner = msg.sender;\r\n        online = true;\r\n    }\r\n    \r\n    struct Item  {\r\n        address buyer;\r\n        address seller;\r\n        uint id;\r\n        string itemName;\r\n        string itemDescription;\r\n        uint itemPrice;\r\n        bool sold;\r\n        bool sent;\r\n        bool received;\r\n    }\r\n\r\n    Item[] public items;\r\n\r\n    event doStuff(\r\n        uint price,\r\n        string name,\r\n        address seller\r\n    );\r\n\r\n    function newItem(string memory name, string memory description, uint price) public returns(uint) {\r\n        require(online == true);\r\n        require(price > 0, \"Price must be greater than 0.\");\r\n        uint checkingLength = items.length;\r\n        items.push(\r\n            Item({\r\n                buyer: address(0),\r\n                seller: msg.sender,\r\n                id: items.length + 1,\r\n                itemName: name,\r\n                itemDescription: description,\r\n                itemPrice: price,\r\n                sold: false,\r\n                sent: false,\r\n                received: false           \r\n            })\r\n        );\r\n        emit doStuff(price, name, msg.sender);\r\n        assert(checkingLength + 1 == items.length);\r\n        return items.length;\r\n    }\r\n\r\n    function getItem(uint id) public view returns(\r\n        uint, string memory, string memory, uint, bool, bool, bool\r\n    ){\r\n        return( \r\n            items[id].id,\r\n            items[id].itemName,\r\n            items[id].itemDescription,\r\n            items[id].itemPrice,\r\n            items[id].sold,\r\n            items[id].sent,\r\n            items[id].received\r\n        );\r\n    }\r\n\r\n    function buyItem(uint id) public payable returns(bool){\r\n        require(online == true);\r\n        require(items[id].itemPrice == msg.value);\r\n        require(items[id].sold != true);\r\n        items[id].buyer = msg.sender;\r\n        items[id].sold = true;\r\n        return true;\r\n    }\r\n\r\n    function receivedItem(uint id) public{\r\n        require(items[id].sold == true);\r\n        require(items[id].sent == true);\r\n        require(items[id].buyer == msg.sender);\r\n        items[id].received = true;\r\n    }\r\n\r\n    function sentItem(uint id) public{\r\n        require(items[id].sold == true);\r\n        items[id].sent = true;\r\n    }\r\n    \r\n    function claimFunds(uint id) public{\r\n        require(online == true);\r\n        require(items[id].seller == msg.sender);\r\n        require(items[id].received == true);\r\n        msg.sender.transfer(items[id].itemPrice);\r\n    }\r\n\r\n    function kill() public{\r\n        require(msg.sender == owner);\r\n        selfdestruct(msg.sender);\r\n    }\r\n\r\n    function switchStatus(bool status) public{\r\n        require(msg.sender == owner);\r\n        online = status;\r\n    }\r\n\r\n}",
  "sourcePath": "C:/Users/Frenchy/Documents/GitHub/Dapp-video-game-store/contracts/Product.sol",
  "compiler": {
    "name": "solc",
    "version": "0.5.0+commit.1d4f565a.Emscripten.clang"
  },
  "schemaVersion": "3.0.6",
  "updatedAt": "2019-04-13T21:56:00.483Z",
  "devdoc": {
    "methods": {}
  },
  "userdoc": {
    "methods": {}
  }
}